:0200000027C017
:10000200FECFFDCFFCCFFBCFFACFF9CFF8CFF7CFA2
:10001200F6CFF5CFF4CFF3CFF2CFF1CFF0CFEFCFD2
:10002200EECFEDCF543D2566432020483D25665254
:100032000D0A00002D4E414E000001002D4E414E92
:1000420000494E460000010069013C000000F8949E
:10005200EE27ECBBF1E0FBBFEBBFE5BF8DE0A2E01A
:10006200BB27ED938A95E9F780E094E0A0E6ED9353
:100072000197E9F7E8E4F0E085919591009761F046
:10008200A591B59105901590BF01F00105900D92D3
:100092000197E1F7FB01F0CFEFE5EDBFE4E0EEBF42
:1000A200C0E6D1E000C029D0E8E0EAB9E6E8E0BD68
:1000B200EFECE9B9E5E6F1E08BD4A1E6B1E0D1D00D
:1000C200E6E2F0E085D4E0916501F091660160918D
:1000D200670170916801F3D7E0916101F0916201CB
:1000E2006091630170916401EAD788E069D32A962E
:1000F200A0EDB7E0A0D5DECFFFCFA0EDB7E09BD556
:10010200E0E069D408956AD425976BD4E0E0EC83EB
:10011200F3D761D4E0E03E2F0E2F1E2F68D4A9F44E
:10012200A898A09AA2E3B0E086D5A89AA09810E079
:10013200989B02C0E1E001C0E0E0E03031F05BD426
:100142001D3310F05DD401C0F3CF51D4E1F410E0BF
:10015200989B02C0E1E001C0E0E0E03031F44BD412
:10016200153610F04DD401C0F3CF10E0989B02C0B9
:10017200E1E001C0E0E0E03031F03DD4153610F0AE
:100182003FD401C0F3CF33D409F03FC000E00530C3
:10019200E0F537E03030BCF110E0989B02C0E1E0BE
:1001A20001C0E0E0E03041F426D4173420F028D436
:1001B2003FEF05E001C0F1CF1AD419F58DE58A951C
:1001C200F1F7989B02C0E1E001C0E0E0E03059F0B5
:1001D20019D4EA0FFB1FBF011080E32FA1E0EAD67A
:1001E200E129DB01EC9310E0989B02C0E1E001C041
:1001F200E0E0E03031F0FFD3153610F001D401C059
:10020200F3CF3150C7CF0F5FC2CFF1D339F5AC81F5
:10021200BB27ED81F0E0AE0FBF1FEE81F0E0AE0F25
:10022200BF1FEF81F0E0EA0FFB1FAE2FE885EA1750
:1002320019F0E3E0D0D312C000E0043078F4E02FEC
:10024200A985BA85F0E0EA0FFB1F0F01DBD3AE0FE1
:10025200BF1FEC91D001EC930F5FEFCF54D72B96D9
:100262000895BCD32497BDD3DE014DDFC0D389F5F9
:10027200EA81EA93AC812FD0CAD30DD7E881EA9301
:10028200AA8129D0AC81BD8106D7C1D3FED67723FE
:1002920052F0C0D3E0E0F0E068E472E45FD611F01F
:1002A20008F001C002C0E2E012C0B7D3E0E0F0E023
:1002B20060EA71E453D650F0B0D3E0E0F0E064EBD2
:1002C20072E44CD611F008F001C003C0E1E0E09303
:1002D200600128960895AA93249783D3ED81A1D330
:1002E200A5D3A6D326960895AA935D9BFECFE88157
:1002F200ECB92196089572D3AA81F6DFA881B9815B
:1003020099D3239608959CD3E0E8EA83EFE3EB8345
:10031200F3D6EE85FF85EF3FAFEFFA0739F4E885B4
:10032200F98556D3A6E3B0E069D277C0EF3FAFE7D5
:10033200FA0731F48BD34CD3A7E3B0E05FD26DC0A0
:10034200AB85A73010F0E6E0EB871B8582D311F076
:1003520084D3FCCF90D3CAD619F430E07ED31BC02D
:100362003B858ED309F008F407C077D389D318F000
:1003720091D395D3FBCF08C083D328F48BD39AD3E0
:100382009FD33150F9CF69D376D39FD399D378D302
:1003920010F080D384D310E0EB85E117F0F09BD30B
:1003A2009FD393D337D37DD2EC83FD836E837F8338
:1003B20071D38FD57DD40E2F99D39FD332D38BD3C4
:1003C2003AD568D386D6E0D47BD3E12F1F5FE030E5
:1003D20019F78CD3EEE2EC93DFCF94D33197AA8551
:1003E200A08330302CF43195A885B985EDE203C0A5
:1003F200A885B985EBE2EC9385D384D388D3FBD56A
:10040200E05DDB01EC937ED382D31FD6E05DDB019E
:10041200EC93A885B985E0E0EC9375D660960895D3
:10042200DDD2EF97619766D610E0FE01E85AFF4FE2
:100432000190F081E02DE887F987FE01EA5AFF4F2B
:100442000190F081E02DEE83FF83E1D2E0E0F0E065
:10045200ED93FC93DE01A45ABF4FECD23197E491A5
:100462002E2FE03009F4A6C1E12FE03031F425321D
:1004720011F411E001C050D39CC1E130B9F425322E
:1004820011F44AD395C112E0E0E0ED8B00E02D3289
:1004920011F401E08EC12B3219F4EBE2ED8B89C12C
:1004A200203219F4E0E2ED8B84C102C0E23039F46B
:1004B20050E013E0203311F400687BC102C0E33046
:1004C20091F4203310F02A3308F007C0AAE05A9FB3
:1004D200502DE22FE0535E0F6CC140E02E3211F43A
:1004E20014E067C10FC0E43099F4203310F02A33CE
:1004F20008F008C00062AAE04A9F402DE22FE053B4
:100502004E0F57C12C3619F4026015E052C103C0D8
:10051200E53009F04EC1E22FE33639F404D30AD3B1
:1005220002D3A481AA930DD343C1E53411F0E53679
:1005320009F402C0E636A9F50AD30ED3A6D513D321
:1005420017D3AD85AA2332F0AD89AB3241F0A03288
:1005520061F012C00FD379D306D3EDE2ED8B07FF22
:1005620004C0ED89EA93EDD207C0EE85FF8531968E
:1005720006D33197AD89A08305FF46E0263639F4CC
:10058200F9D29DD54A93AB89BC899BD107C0F2D2DF
:1005920096D54A932A93AC89BD89B5DED8D2F2D2D8
:1005A20016C0E33721F4E4D2F2D2ECD209C0E0372C
:1005B20099F4DED2ECD2AE85BF8537D11E2F08600A
:1005C2000F77403011F0411708F001C0142F40E0BE
:1005D200E0E0EC8B30E062C0E43611F0E93611F471
:1005E200046002C0E53791F4EAE0EC8B01FF07C03A
:1005F200E0E0FAEC6AE97BE3CED21AE01FC0E0E168
:10060200F7E260E070E0C7D215E018C0E83511F4F7
:10061200086003C0E83709F0CBC0E0E1EC8B01FFD2
:1006220007C0E0E0F0E060E070E1B5D218E006C09B
:10063200E0E0F0E160E070E0AED214E0403011F0B2
:100642000F7701C041E001FF05C092D285D2149616
:100652001CD50EC002FF06C08BD27ED2149611D5D5
:10066200B7D406C085D278D214960BD566277727E1
:10067200EA87FB876C877D8702FF0FC0AD85AA23BF
:100682002AF478D28FD46FD2EDE2ED8BED89E0308F
:1006920019F01F5F4F5F01C00B7F342F00FD13C0A5
:1006A200151710F4351708F00EC007FF08C002FF37
:1006B20004C00B7F2D89115001C020E301C020E24C
:1006C2002BD25150EDCF141780F4006102FF05C008
:1006D20067D209F0515011504150E0E3EA9331D210
:1006E200503009F051504150EECF312FEC89E030BB
:1006F200A9F4303091F003FF05C0EE85FF85259106
:100702003ED205C0AE85BF852D91AE87BF8704D28C
:10071200503009F051503150ECCF41C053D270D417
:100722002E2F2A3030F003FF02C0295C01C0295A63
:1007320001C0205D04FD1DC0213348F44CD2A1301C
:10074200E0E0BE07E0E08E07E0E09E0709F40BC0A0
:10075200431740F4531710F000FF01C00EC020E20F
:1007620007FF07C020E3006102FF03C019D209F0AE
:100772005150D2D1503009F05150315023D271D45E
:10078200F2D1EC8928D2FF276627772739D403D202
:10079200E889F9896A897B89A9D409F0BFCF00FF6A
:1007A20007C0503029F05150E0E2EA93CAD1F9CFA4
:1007B20010E050CE2CD165D4A4D4EF966F96089554
:1007C200FF92F82E26979AD4DE011496E7D38D0174
:1007D200E0E0EC83ED83EE83EF83DE011896DED357
:1007E20050D4F6D01A930A93ECE7F1E0F1D0DE018F
:1007F200189616DE8AD42896FF900895EFD0E991D4
:10080200F991A991B991CD0105900D920020E1F7DE
:10081200FC010895E3D0A991B991EE27FF276D91CC
:10082200662311F03196FBCF0895D8D0AA27BB27B3
:10083200E991F9910590002011F01196FBCFFD018D
:10084200089542D47B816A81F981E88177FB770F31
:1008520067FD7160972F9E5781F078F0983190F480
:10086200AA27BB27882708948795B795A7959A95B5
:10087200D1F7EA23FB23682305C0E8947727EE2704
:10088200FF2766276F77769508F4606877F9A99154
:10089200B99189919991EA17FB076807790797FB44
:1008A200089512D402D4CDDFC1D011F4C1D007C053
:1008B200EEF7BED0A0E0B0E080E89FE365D22496D8
:1008C2000895BED0E0E0EA83EFE3EB8317D4EB8533
:1008D200FC85EF3FAFEFFA0729F482D1AEE3B0E037
:1008E2008DDF73C0EF3FAFE7FA0729F479D1AFE3A9
:1008F200B0E084DF6AC0AC85AA2332F474D1A5D1FA
:1009020077D17BD1EDE2EC93A885A73010F0E6E039
:10091200E88718859ED021F076D1E2D079D1FACF3E
:100922007CD139D265D110E0E0E0F0E060E87FE30D
:100932006FD173D113D360F066D1BCD069D11F5F80
:10094200173228F04DD1A3E4B0E058DF3EC0F1CF1A
:10095200103021F452D1E0E3EC9318C07AD0B1F018
:1009620052D1BED0B2D056D09CDF52D156D1B1D2E4
:100972009FD10E2F42D1C1D0F0E045D129D3D1D1A0
:100982005AD254D1A6D300D233D1E8CFE885E03091
:10099200C1F033D1EEE2EC93E885E150E887EF5FF6
:1009A20081F044D187D024D11ED182D10E2F25D1FE
:1009B200A4D0F0E03BD10CD3B4D18BD3E5D118D184
:1009C200EBCFAE81BF81E0E0EC939FD32D960895EB
:1009D200FA93EA930895E09360010895BA93AA9373
:1009E2000895E0E0E883E983EA83EB830895E091E8
:1009F2006001E030089585E08A95F1F71E5F089561
:100A0200E4E0E9CFE02FF0E0DE0114960895AE8134
:100A1200BF810895DF01CB010895AC81BD8135D33B
:100A2200F9CFFF27662777277CD1089543D308950E
:100A320037D30895ED91FD913196FE93EE9308958B
:100A4200CDDF2497E0E0E883E9830895E885F9851E
:100A52000895E12F1150E0300895AC81BD818E815F
:100A62009F81E0E0F0E060E271E4E5D1EC83FD8398
:100A72006E837F830895EC85FD856E857F8508955D
:100A8200EC81FD816E817F81AC85BD858E859F85E0
:100A920065D20895AC85BD858E859F850895EDEC60
:100AA200FCEC6CEC7DE3C7D1EC87FD876E877F871A
:100AB2003F5F0895E0E0F0E060E271E4BCD10895A8
:100AC200EC87FD876E877F870895A0E0B0E080E025
:100AD2009FE361D10895AC81BD818E819F8108958C
:100AE200EDECFCEC6CEC7DE3A6D10895A885B9850C
:100AF2001196A887B98711970895E02FE05DEC93CE
:100B0200E02F0895A3DF3196E887F987089531979A
:100B1200BF01A32FEAE008952A93AF81B885E98542
:100B2200FA8509950895FE01E65AFF4F0190F0817A
:100B3200E02D08953497DE01A65ABF4FED93FC9342
:100B42000895AF81B885E985FA8509950895FE0172
:100B52007696EE87FF870895DE01A65ABF4F0D9065
:100B6200BC91A02D0895EA87FB876C877D87089545
:100B7200DADFE0CFEA85FB856C857D850895EE8717
:100B8200FF870895AE85BF8545DE1E2F0895E4DFF9
:100B9200149677D2F4CFE88BF98B6A8B7B8B08950E
:100BA2000B7FED89EA93DE01A95ABF4F0D90BC91EC
:100BB200A02DFE01E75AFF4F0190F081E02D09952B
:100BC20050300895E889F9896A897B89AA85BB85AD
:100BD2008C859D850895A889B9898A899B890895FC
:100BE200EE81FF81F5CEE985FA856B857C850895D6
:100BF200E987FA876B877C87089509DF1196AE83B0
:100C0200BF8311970895AA81BB818C819D8108952C
:100C1200EA83FB836C837D830895EA81FB816C8187
:100C22007D81A985BA858B859C850895A985BA851C
:100C32008B859C850895109639F080ED97E0019799
:100C4200F1F7A8951197C9F7089530976040704061
:100C520009F070580895552342F4503811F4E0FF1A
:100C620004C03196691F791F6BF050E8572711F4C1
:100C72005F93CFC05F3F31F0660F000C57956795C9
:100C8200752F08955F9300200AF0CFC0C8C050E8C6
:100C9200192E1522880F991F9527550F879550E811
:100CA200072E0522660F771F7527550F6795089542
:100CB200689401C0E8945F93F2DF703818F07F3FC8
:100CC20008F4A7C056E1571BAAF4519558300EF408
:100CD200593030F0EFEFFFEF6FEF7FE777F91AC08F
:100CE20077275523B9F0EE0FFF1F661F771F5A951E
:100CF200D1F710C07727583028F0EF2FF62F672F43
:100D02005850F9CF552331F076956795F795E795C9
:100D12005A95D1F700200AF445D15F91089568945D
:100D220001C0E894309760407040B1F0002426F092
:100D3200772312F4009436D1172E7EE1112032F07F
:100D42007A95EE0FFF1F661F111CF9CFEF2FF62FBA
:100D5200612D5F938ADF5F9108954F93AF01FD018B
:100D6200DA01AB01BC01CA01402D012C142E4F91B6
:100D72000895EA0FFB1F681F0895E095F0956095AE
:100D8200EF5FFF4F6F4F08955F9381DF903871F1EE
:100D920050E8152604C05F937ADF903839F1703835
:100DA20021F1572F591B2BF112F4D7DFFACF58310B
:100DB20018F0AA27BB278827583028F0AB2FB82F66
:100DC20088275850F9CF552329F08695B795A795CE
:100DD2005A95D9F7502D512572F0CBDF38F467952B
:100DE200F795E795739513F420C0B7DF3EDF5F9167
:100DF2000895D8F7FBCFEA1BFB0B680B51F010F4F8
:100E02000094BBDF662392F3EE0FFF1F661F7A95F5
:100E1200CBF7EE27FF27662777275F910895EFEF3D
:100E2200FFEF6FE77FEF5F910895EFEFFFEF6FE75F
:100E32007FE75F9108955F932ADF703851F390380E
:100E420041F301240894791F23F41CF300203AF3A0
:100E5200ECCF0F921F932F933F934F93112722278B
:100E62009927689FA0018F9F302D410D591F6B9FBD
:100E7200300D411D591F8E9F27D0BF9F25D06A9FDD
:100E820023D0BE9F1DD0AF9F1BD0AE9F110D291F37
:100E9200391F491F591FE32FF42F652F522F4F91EE
:100EA2003F912F911F910F9066232AF0550FEE1F4D
:100EB200FF1F661F02C073954BF2CDDE5F9108954E
:100EC200100D211D391F02C0200D311D491F591F50
:100ED20008955F93DCDE703821F411200AF49FCF6D
:100EE200A4CF903809F495CF01240894970B1BF4F2
:100EF200D4F30020F3CF792F1F932F933F934F9377
:100F020011241127222733274427552790E2AE17B1
:100F1200BF078607410730F0AE1BBF0B860B410BA4
:100F2200089401C08894551F221F331F111CAA1F49
:100F3200BB1F881F441F9A9551F7F901612D4F91EC
:100F42003F912F911F91662332F0550FEE1FFF1F25
:100F5200661F7A9543F27FDE5F91089599239AF096
:100F6200772342F0971748F029F4AE17BF07860798
:100F720020F031F0989488940895989408940895F4
:100F82001894889408957723C2F7971798F3A9F7CE
:100F9200EA17FB07680788F399F3ECCF0024AF0D3B
:100FA200B01D0895F09560957095E195FF4F6F4FD4
:100FB2007F4F0895EE230E2EEA2F19F0EE0F0A94BA
:100FC200E9F70895FE2FFF0FFF0B6F2F7F2F089574
:100FD2006F2F660F660B762F0895002498E0AA0FF4
:100FE200001C0E1A10F40E0E01C0A1609A95B9F7FA
:100FF200EA2FA02D089539D0F0DF0EF4E19508957F
:101002003F934F935F93002411244427552730E2E6
:10101200AA0FBB1F881F991F001C111C441F551FBC
:101022000E1A1F0A460B570B28F40E0E1F1E461FE0
:10103200571F01C0A1603A9559F7FD01BC01D001CB
:10104200CA015F914F913F910895E894A7FF02C0B2
:10105200A1956894E7FDE195C0DFEA2F0EF4E195D2
:101062000895CEDFFD01BC010895E894E7FF02C0B8
:10107200E1956894A7FF04C0A19500F8039400FAD3
:101082000895ED91FC9111970895ED91FD916D9167
:101092007C9113970895ED93FD936D937C9308953E
:1010A200E881F9816A817B810895A881B9818A8169
:1010B2009B810895E883F9836A837B8308957A93F9
:1010C2006A93FA93EA9308959A938A93BA93AA93A6
:1010D2000895182E862F612D192E972F712D1B2EF4
:1010E200BF2FF12D1A2EAE2FE12D089530976040BB
:1010F200704008955A934A933A932A931A930A9303
:1011020008955D814C813B812A811981088108956E
:00000001FF
