:020000002FC00F
:10000200FECFFDCFFCCFFBCFFACFF9CFF8CFF7CFA2
:10001200F6CFF5CFF4CFF3CFF2CFF1CFF0CFEFCFD2
:10002200EECFEDCF00000000543D25644320204870
:100032003D256452204352433D25690D0A002D4E51
:10004200414E000001002D4E414E00494E46000037
:100052000400040026000100600146000000F8943C
:10006200EE27ECBBF1E0FBBFEBBFE5BF8DE0A2E00A
:10007200BB27ED938A95E9F780E094E0A0E6ED9343
:100082000197E9F7E2E5F0E085919591009761F03B
:10009200A591B59105901590BF01F00105900D92C3
:1000A2000197E1F7FB01F0CFEFE5EDBFE4E0EEBF32
:1000B200C0E6D1E06BC0A09AA898A2E1B0E01AD540
:1000C200A89A0895A098989B07C083E08A95F1F7B3
:1000D2007394E0E5E715B8F77724989902C0F2D354
:1000E200E0F77724989B02C0EDD3E0F70895E8E0AB
:1000F2005E1600F55394989BFECF80E58A95F1F742
:10010200989B05C0E42DEE0FE1604E2E01C0440C19
:1001120088249924E8EEF3E08E169F0614F4989949
:1001220001C007C08BE18A95F1F7F40131964F01C6
:10013200F1CFDDCF5524E42D0895CBD335D7BBDFE6
:10014200C1DFD5DFAC81BD81EC93D1DF1E2FCFDFC4
:10015200C3D3EC93CCDF0E2FCADF3E2FAC81BD811F
:10016200AC91BB27E12FF0E0EA0FFB1F0F01B4D3E4
:10017200EC91F0E0D001AE0FBF1FEE27A00FBE1F23
:10018200E32FF0E081D617D728960895E8E0EAB980
:10019200E6E8E0BDEFECE9B92397E0E0E983EA8322
:1001A200FE0131969CD3DE011496C7DFE883EAE2B2
:1001B200F0E095D3EB8196D3E88594D3EA8592D388
:1001C2008CE077D22E96A0EDB7E094D42396E4CFBC
:1001D200FFCFAA935D9BFECFE881ECB921960895EB
:1001E20078D3AA81F6DFA881B98181D323960895B5
:1001F20084D3E0E8EA83EFE3EB83D6D6EE85FF858E
:10020200EF3FAFEFFA0739F4E885F98568D3A0E448
:10021200B0E06DD27BC0EF3FAFE7FA0731F473D3A2
:100222005ED3A1E4B0E063D271C0AB85A73010F019
:10023200E6E0EB871B856AD311F06CD3FCCF78D351
:10024200ADD619F430E066D31BC03B8576D309F0F6
:1002520008F407C05FD371D318F079D37DD3FBCFF5
:1002620008C06BD328F473D382D387D33150F9CF2C
:1002720051D35ED387D381D360D310F068D36CD3CC
:1002820010E0EB85E11710F183D387D37BD3DF0135
:10029200CB0180D2EC83FD836E837F8358D378D5E4
:1002A20066D40E2F80D386D3FF276627772798D46C
:1002B2006FD320D54CD365D6C6D45FD3E12F1F5F51
:1002C200E030F9F670D3EEE2EC93DBCF78D33197DE
:1002D200AA85A08330302CF43195A885B985EDE24A
:1002E20003C0A885B985EBE2EC9369D368D36CD3DC
:1002F200DFD5E05DDB01EC9362D366D303D6E05D2C
:10030200DB01EC93A885B985E0E0EC9354D66096C6
:100312000895DFD2EF97619745D610E0FE01E85AC3
:10032200FF4F0190F081E02DE887F987FE01EA5A3C
:10033200FF4F0190F081E02DEE83FF83CDD2E0E00C
:10034200F0E0ED93FC93DE01A45ABF4FD0D2319777
:10035200E4912E2FE03009F4A6C1E12FE03031F410
:10036200253211F411E001C034D39CC1E130B9F45B
:10037200253211F42ED395C112E0E0E0ED8B00E0BE
:100382002D3211F401E08EC12B3219F4EBE2ED8B28
:1003920089C1203219F4E0E2ED8B84C102C0E2305F
:1003A20039F450E013E0203311F400687BC102C03D
:1003B200E33091F4203310F02A3308F007C0AAE0AA
:1003C2005A9F502DE22FE0535E0F6CC140E02E3257
:1003D20011F414E067C10FC0E43099F4203310F037
:1003E2002A3308F008C00062AAE04A9F402DE22F9B
:1003F200E0534E0F57C12C3619F4026015E052C17A
:1004020003C0E53009F04EC1E22FE33639F4E8D2F9
:10041200EED2E6D2A481AA93F1D243C1E53411F01F
:10042200E53609F402C0E636A9F5EED2F2D28AD553
:10043200F7D2FBD2AD85AA2332F0AD89AB3241F0BF
:10044200A03261F012C0F3D25FD3EAD2EDE2ED8BBB
:1004520007FF04C0ED89EA93D1D207C0EE85FF857C
:100462003196EAD23197AD89A08305FF46E0263660
:1004720039F4DDD27CD54A93AB89BC899BD107C0C4
:10048200D6D275D54A932A93AC89BD89B1DEBCD246
:10049200D6D216C0E33721F4C8D2D6D2D0D209C000
:1004A200E03799F4C2D2D0D2AE85BF8537D11E2FA4
:1004B20008600F77403011F0411708F001C0142F87
:1004C20040E0E0E0EC8B30E062C0E43611F0E93667
:1004D20011F4046002C0E53791F4EAE0EC8B01FF0D
:1004E20007C0E0E0FAEC6AE97BE3B2D21AE01FC08F
:1004F200E0E1F7E260E070E0ABD215E018C0E83569
:1005020011F4086003C0E83709F0CBC0E0E1EC8BDE
:1005120001FF07C0E0E0F0E060E070E199D218E08E
:1005220006C0E0E0F0E160E070E092D214E040301A
:1005320011F00F7701C041E001FF05C076D269D208
:10054200149600D50EC002FF06C06FD262D2149676
:10055200F5D495D406C069D25CD21496EFD466273E
:100562007727EA87FB876C877D8702FF0FC0AD85FF
:10057200AA232AF45CD275D453D2EDE2ED8BED8935
:10058200E03019F01F5F4F5F01C00B7F342F00FD79
:1005920013C0151710F4351708F00EC007FF08C076
:1005A20002FF04C00B7F2D89115001C020E301C05E
:1005B20020E20FD25150EDCF141780F4006102FFF8
:1005C20005C04BD209F0515011504150E0E3EA937B
:1005D20015D2503009F051504150EECF312FEC89F5
:1005E200E030A9F4303091F003FF05C0EE85FF85BD
:1005F200259122D205C0AE85BF852D91AE87BF87DA
:10060200E8D1503009F051503150ECCF41C037D2CF
:1006120054D42E2F2A3030F003FF02C0295C01C0CF
:10062200295A01C0205D04FD1DC0213348F430D297
:10063200A130E0E0BE07E0E08E07E0E09E0709F4AB
:100642000BC0431740F4531710F000FF01C00EC057
:1006520020E207FF07C020E3006102FF03C0FDD1D3
:1006620009F05150B6D1503009F05150315007D2F3
:1006720055D4D6D1EC890CD2FF27662777271DD413
:10068200E7D1E889F9896A897B8988D409F0BFCFE3
:1006920000FF07C0503029F05150E0E2EA93AED19A
:1006A200F9CF10E050CE18D149D483D4EF966F968B
:1006B2000895FF92F82E269779D4DE011496CDD3B1
:1006C2008D01E0E0EC83ED83EE83EF83DE0118968B
:1006D200C4D334D404D11A930A93E1EFF0E0FFD0EB
:1006E200DE01189616DE69D42896FF900895F1D09F
:1006F200E991F991A991B991CD0105900D9200204E
:10070200E1F7FC010895E5D0A991B991EE27FF2701
:100712006D91662311F03196FBCF0895DAD0AA27A6
:10072200BB27E991F9910590002011F01196FBCFBA
:10073200FD01089521D47B816A81F981E88177FBEB
:10074200770F67FD7160972F9E5781F078F098318F
:1007520090F4AA27BB27882708948795B795A79571
:100762009A95D1F7EA23FB23682305C0E8947727FB
:10077200EE27FF2766276F77769508F4606877F98A
:10078200A991B99189919991EA17FB0768077907AD
:1007920097FB0895F1D3E1D3CDDFE4D311F47DD1FA
:1007A20007C0EEF77AD1A0E0B0E080E89FE34BD239
:1007B20024960895A2D0E0E0EA83EFE3EB83F6D338
:1007C200EB85FC85EF3FAFEFFA0729F468D1A8E487
:1007D200B0E08DDF74C0EF3FAFE7FA0729F45FD1D5
:1007E200A9E4B0E084DF6BC0AC85AA2332F45AD10D
:1007F2008BD15DD161D1EDE2EC93A885A73010F0E9
:10080200E6E0E887188582D021F05CD1C6D05FD1BE
:10081200FACF62D11FD24BD110E0E0E0F0E060E805
:100822007FE355D159D1F9D260F04CD1A0D04FD14C
:100832001F5F173228F033D1ADE4B0E058DF3FC07C
:10084200F1CF103021F438D1E0E3EC9319C05ED03F
:10085200B9F038D1A2D096D0DF01CB019BDF37D1DE
:100862003BD196D284D10E2F27D1A4D0F0E02AD149
:1008720006D3B6D13FD239D184D3E5D118D1E7CF4F
:10088200E885E030C1F018D1EEE2EC93E885E15062
:10089200E887EF5F81F029D16AD009D103D167D10E
:1008A2000E2F0AD187D0F0E020D1E9D299D169D3B5
:1008B200CAD1FDD0EBCFAE81BF81E0E0EC937DD316
:1008C2002D9608958BE68A95F1F77394E2E0E71589
:1008D2000895BA93AA930895AE81BF810895FA93B9
:1008E200EA930895FF276627772741D30895ED916C
:1008F200FD913196FE93EE930895EBDF2497E0E0AD
:10090200E883E9830895E885F9850895E12F115078
:10091200E0300895AC81BD818E819F81E0E0F0E0FE
:1009220060E271E4E7D1EC83FD836E837F830895F7
:10093200EC85FD856E857F850895EC81FD816E8154
:100942007F81AC85BD858E859F8567D20895AC85F4
:10095200BD858E859F850895EDECFCEC6CEC7DE306
:10096200C9D1EC87FD876E877F873F5F0895E0E0FE
:10097200F0E060E271E4BED10895EC87FD876E87F6
:100982007F870895A0E0B0E080E09FE363D10895FF
:10099200AC81BD818E819F810895EDECFCEC6CEC05
:1009A2007DE3A8D10895A885B9851196A887B9874E
:1009B20011970895E02FE05DEC93E02F0895A3DFF7
:1009C2003196E887F98708953197BF01A32FEAE0AE
:1009D20008952A93AF81B885E985FA850995089526
:1009E200FE01E65AFF4F0190F081E02D0895349701
:1009F200DE01A65ABF4FED93FC930895AF81B885EF
:100A0200E985FA8509950895FE017696EE87FF87B6
:100A12000895DE01A65ABF4F0D90BC91A02D0895F6
:100A2200EA87FB876C877D870895DADFE0CFEA8566
:100A3200FB856C857D850895EE87FF870895AE85D9
:100A4200BF8561DE1E2F0895E4DF149677D2F4CFBE
:100A5200E88BF98B6A8B7B8B08950B7FED89EA9388
:100A6200DE01A95ABF4F0D90BC91A02DFE01E75A9D
:100A7200FF4F0190F081E02D099550300895E889EB
:100A8200F9896A897B89AA85BB858C859D850895AC
:100A9200A889B9898A899B8908955AD20895EE81D5
:100AA200FF811DCFE985FA856B857C850895E987ED
:100AB200FA876B877C8708950FDF1196AE83BF8319
:100AC20011970895AA81BB818C819D810895EA8343
:100AD200FB836C837D830895EA81FB816C817D8138
:100AE200A985BA858B859C850895A985BA858B854C
:100AF2009C850895109639F080ED97E00197F1F703
:100B0200A8951197C9F7089530976040704009F091
:100B120070580895552342F4503811F4E0FF04C090
:100B22003196691F791F6BF050E8572711F45F93D4
:100B3200CFC05F3F31F0660F000C57956795752F58
:100B420008955F9300200AF0CFC0C8C050E8192E64
:100B52001522880F991F9527550F879550E8072E64
:100B62000522660F771F7527550F679508956894BC
:100B720001C0E8945F93F2DF703818F07F3F08F409
:100B8200A7C056E1571BAAF4519558300EF45930BC
:100B920030F0EFEFFFEF6FEF7FE777F91AC07727BB
:100BA2005523B9F0EE0FFF1F661F771F5A95D1F735
:100BB20010C07727583028F0EF2FF62F672F5850A4
:100BC200F9CF552331F076956795F795E7955A95C4
:100BD200D1F700200AF445D15F910895689401C0CD
:100BE200E894309760407040B1F0002426F07723FB
:100BF20012F4009436D1172E7EE1112032F07A954C
:100C0200EE0FFF1F661F111CF9CFEF2FF62F612D7C
:100C12005F938ADF5F9108954F93AF01FD01DA017F
:100C2200AB01BC01CA01402D012C142E4F91089535
:100C3200EA0FFB1F681F0895E095F0956095EF5F3E
:100C4200FF4F6F4F08955F9381DF903871F150E845
:100C5200152604C05F937ADF903839F1703821F19C
:100C6200572F591B2BF112F4D7DFFACF583118F056
:100C7200AA27BB278827583028F0AB2FB82F882700
:100C82005850F9CF552329F08695B795A7955A95CF
:100C9200D9F7502D512572F0CBDF38F46795F795CF
:100CA200E795739513F420C0B7DF3EDF5F91089597
:100CB200D8F7FBCFEA1BFB0B680B51F010F4009442
:100CC200BBDF662392F3EE0FFF1F661F7A95CBF709
:100CD200EE27FF27662777275F910895EFEFFFEF53
:100CE2006FE77FEF5F910895EFEFFFEF6FE77FE729
:100CF2005F9108955F932ADF703851F3903841F382
:100D020001240894791F23F41CF300203AF3ECCF5A
:100D12000F921F932F933F934F93112722279927C7
:100D2200689FA0018F9F302D410D591F6B9F300D81
:100D3200411D591F8E9F27D0BF9F25D06A9F23D068
:100D4200BE9F1DD0AF9F1BD0AE9F110D291F391F13
:100D5200491F591FE32FF42F652F522F4F913F91B7
:100D62002F911F910F9066232AF0550FEE1FFF1F40
:100D7200661F02C073954BF2CDDE5F910895100D90
:100D8200211D391F02C0200D311D491F591F089511
:100D92005F93DCDE703821F411200AF49FCFA4CFD8
:100DA200903809F495CF01240894970B1BF4D4F3DF
:100DB2000020F3CF792F1F932F933F934F9311244A
:100DC2001127222733274427552790E2AE17BF0762
:100DD2008607410730F0AE1BBF0B860B410B089410
:100DE20001C08894551F221F331F111CAA1FBB1F4D
:100DF200881F441F9A9551F7F901612D4F913F9138
:100E02002F911F91662332F0550FEE1FFF1F661FB1
:100E12007A9543F27FDE5F91089599239AF07723C2
:100E220042F0971748F029F4AE17BF07860720F063
:100E320031F0989488940895989408940895189499
:100E4200889408957723C2F7971798F3A9F7EA17BA
:100E5200FB07680788F399F3ECCF0024AF0DB01DB0
:100E62000895F09560957095E195FF4F6F4F7F4F14
:100E72000895FE2FFF0FFF0B6F2F7F2F08956F2F07
:100E8200660F660B762F0895EA17FB07E1E009F07B
:100E9200EE270895002498E0AA0F001C0E1A10F401
:100EA2000E0E01C0A1609A95B9F7EA2FA02D089500
:100EB20039D0F0DF0EF4E19508953F934F935F939D
:100EC200002411244427552730E2AA0FBB1F881F94
:100ED200991F001C111C441F551F0E1A1F0A460B96
:100EE200570B28F40E0E1F1E461F571F01C0A1608C
:100EF2003A9559F7FD01BC01D001CA015F914F91AA
:100F02003F910895E894A7FF02C0A1956894E7FD78
:100F1200E195C0DFEA2F0EF4E1950895CEDFFD01E1
:100F2200BC010895E894E7FF02C0E1956894A7FF29
:100F320004C0A19500F8039400FA0895ED91FC9184
:100F420011970895ED91FD916D917C9113970895FC
:100F5200E881F9816A817B810895A881B9818A81BA
:100F62009B810895E883F9836A837B8308957A934A
:100F72006A93FA93EA9308959A938A93BA93AA93F7
:100F82000895182E862F612D192E972F712D1B2E45
:100F9200BF2FF12D1A2EAE2FE12D0895309760400C
:100FA200704008955A934A933A932A931A930A9354
:100FB20008955D814C813B812A81198108810895C0
:00000001FF
